:10000000800075814074007820F608B827FBD291F3
:100010001126118811EF3135E522B41D02C2B6B4A4
:100020001202D2B680EEC2A0113B319E9000A174A4
:1000300001115A9000B27402115A22743811C3315E
:100040009E743811C3319E743811C3319E740C11E3
:10005000C3319E740111C3319E22B4010C7480110E
:10006000C3117F748011C3800A74C011C3117F74DF
:10007000C011C3E493B400012211D0A380F522780B
:1000800018742011D0D8FA229000907401115A22CD
:100090002052454D4F544520434F4E54524F4C2013
:1000A0000020202020202020202020202020202070
:1000B0002000202049522D434F44453A202D2D4801
:1000C000202000F580C2A2C2A1D2A011DDC2A022D0
:1000D000F580D2A2C2A1D2A011DDC2A0227FFADF98
:1000E000FE22C0E0E5F024C011C3D0E011D0227898
:1000F0002030910280FB7C143191DCFC2091F220B5
:100100009104319180F97B00309104319180F92084
:100110009104319180F97A0031912091137408C3D0
:100120009AE613F60BBB08E07B0008B824DA8004DB
:100130000ABA1EE422E522F4B523043140317322C9
:1001400075260BE52254F0C4C0E0C3940AD0E04009
:05015000022407243029
:100155008526F011E2E522540FC0E0C3940AD0E0F1
:1001650040022407243005268526F011E2227E640C
:100175003180B2B7DEFA7D193186227FB400DFFD0A
:10018500227E327F64DFFEDEFADDF6227D017E020D
:100195007F20DFFEDEFADDF6227E197F64DFFEDEDC
:0201A500FA223C
:00000001FF
