:03000000020026D5
:0C002600787FE4F6D8FD75810D02006DB6
:0A01F200C0F9A4B0999282F8809041
:0901E800040900000000010803F5
:1001D500E4FDEDC39FE49E5009E4FC0CBC02FC0D5C
:0201E50080F0A8
:0101E70022F5
:0601A300D2B5D2B47F01C9
:1001A900E4FDEDC39FE49E500CE4FC0CECD3949465
:0501B90040F90D80ED8E
:0101BE00221E
:10017E00AB07AA06D3EB9400EA648094804015C2C4
:10018E00927F017E001201D5D2921201D5EB1B7027
:05019E00E31A80E022DD
:0300230002014C8B
:0B014C00C0E0C0D075D000C000C007AC
:10015700C2AF309817E59924D0FF74092508F8A68F
:0E01670007C298E50870037508041508D2AFAA
:09017500D007D000D0D0D0E03258
:1001BF00758920E4F587759850758DFD758BFDD287
:0601CF008ED2ACD2AF227B
:1000B2007F017E001201A91201069001F293F580E0
:1000C200C2B6D2B71201A390000112011F9001F231
:1000D20093F580D2B6C2B71201A390000212011F9B
:1000E2009001F293F580D2B6D2B7C2B51201A590B3
:1000F200000312011F9001F293F580D2B6D2B7D25B
:04010200B5C2B422AC
:10000300E4F50D7F64FE1201A91201BF7B007A00A3
:0E00130079091200B27F0F7E001201D580EE37
:10003200020003E493A3F8E493A34003F68001F2E1
:1000420008DFF48029E493A3F85407240CC8C333CF
:10005200C4540F4420C8834004F456800146F6DF9E
:10006200E4800B01020408102040809001E8E47E45
:10007200019360BCA3FF543F30E509541FFEE49393
:10008200A360010ECF54C025E060A840B8E493A35A
:10009200FAE493A3F8E493A3C8C582C8CAC583CA85
:1000A200F0A3C8C582C8CAC583CADFE9DEE780BE3D
:0101F100000D
:10010600BB010689828A83E0225002E722BBFE02F7
:09011600E32289828A83E493222A
:10011F00BB010CE58229F582E5833AF583E0225095
:10012F0006E92582F8E622BBFE06E92582F8E222DF
:0D013F00E58229F582E5833AF583E49322F9
:00000001FF
