:03000000020220D9
:0C022000787FE4F6D8FD758128020267A3
:10057100C0F9A4B0999282F880908883C6A1868E32
:10050000010A00040B0000000008130000000000B6
:10051000000000010F00011200011D000210000088
:08052000021B000002080000AC
:10055E00E4FDEDC39FE49E5009E4FC0CBC02FC0DCF
:02056E0080F01B
:010570002268
:06000300D2B5D2B47F016A
:10000900E4FDEDC39FE49E500CE4FC0CECD3949406
:0500190040F90D80ED2F
:01001E0022BF
:100446007F017E0012000912002E90057193F5803F
:10045600C2B6D2B712000390000112004790057190
:1004660093F580D2B6C2B71200039000021200477D
:1004760090057193F580D2B6D2B7C2B51200059039
:10048600000312004790057193F580D2B6D2B7D219
:04049600B5C2B42215
:04049A008E218F22FE
:10049E00E4FBFAAE21AF227C007D0A12010F740B31
:1004AE002BF8A605AE21AF227C007D0A12010F8E1D
:0E04BE00218F220BBB00010AEB64044A70D5AB
:0104CC00220D
:0404CD008E278F28BF
:1004D100E4FBFAAE27AF287C007D1012010F740BEC
:1004E1002BF8A605AE27AF287C007D1012010F8ED8
:0E04F100278F280BBB00010AEB64044A70D56C
:0104FF0022DA
:060529008B248A258926BF
:10052F00E4FFAB24AA25A9268F82758300E412006D
:05053F00860FBF08ED6E
:010544002294
:10018F008B218A22892312052975900FE590640F20
:10019F00607C20900DAB21AA22A92390000174014D
:1001AF00802220910DAB21AA22A923900001740275
:1001BF008012AB21AA22A92390000120920474037C
:1001CF00800274041200867590F020940AAB21AA65
:1001DF0022A9237401801C20950AAB21AA22A923EE
:1001EF007402800FAB21AA22A923209604740380E6
:1001FF00027404120074AB21AA22A92390000112E9
:10020F000047FF12002E1425E025E02FFF227F006C
:01021F0022BC
:10032900120545120590E512D394034002C2ACE5CB
:1003390011B4B01AE510B40415051CE51C700205CA
:100349001BE4F510F511FB7A00791B1203EF7B0012
:100359007A00791312018FEF601E0520E5207002E3
:10036900051F6423451F7010F51FF5201202AC7B91
:10037900007A00791B1203EFAF1CAE1B12049A7BA3
:0A038900007A00790B120446809CF4
:0300230002039342
:10039300C0E0C0F0C0D075D000C000C004C005C02C
:0303A30006C0078A
:1003A600309835C2980512E50945086023AE1BAFA3
:1003B6001C7C007D0A1200A88E1B8F1CAF99EF24AF
:1003C600D0FFE434FFFEEF251CF51CEE351BF51BB4
:0803D6000509E50970020508A4
:1003DE00D007D006D005D004D000D0D0D0F0D0E0D9
:0103EE0032DC
:10054500758920E4F587D29CC29FD29E758DFD7575
:090555008BFDD28ED2ACD2AF2294
:0B05900075CB4CE4F5CAD2ADD2CA22F4
:03002B000205814A
:0F058100C0E0C2CF0511E51170020510D0E032C5
:0603EF008B218A22892304
:1003F500120145FBAAF07C007D64FFAE021200BA33
:100405008D247C007D64AF03AE021200BAE524752D
:10041500F03C84FEE52475F03C8485F024EE2FFF46
:10042500C39418400474E82FFFEF75F064A47C00B2
:100435002524FFEC35F0AB21AA22A9238FF0020178
:010445007046
:1002AC00EF24F7B4080050749002C275F003A4C593
:1002BC008325F0C583730203200203130203090292
:1002CC0002FF0202F60202ED0202E40202DA74E814
:1002DC00251CF51C740380377464251CF51CE48004
:1002EC002E740A251CF51CE48025051CE51C702CBD
:1002FC00051B227418251CF51C74FC8012749C259B
:10030C001CF51C74FF800874F6251CF51C74FF3555
:0D031C001BF51B22E51C151C7002151B2291
:10022C00020329E493A3F8E493A34003F68001F2BC
:10023C0008DFF48029E493A3F85407240CC8C333D3
:10024C00C4540F4420C8834004F456800146F6DFA2
:10025C00E4800B0102040810204080900500E47E2D
:10026C00019360BCA3FF543F30E509541FFEE49397
:10027C00A360010ECF54C025E060A840B8E493A35E
:10028C00FAE493A3F8E493A3C8C582C8CAC583CA89
:10029C00F0A3C8C582C8CAC583CADFE9DEE780BE41
:0105280000D2
:10002E00BB010689828A83E0225002E722BBFE02D0
:09003E00E32289828A83E4932203
:10004700BB010CE58229F582E5833AF583E022506E
:1000570006E92582F8E622BBFE06E92582F8E222B8
:0D006700E58229F582E5833AF583E49322D2
:10007400BB010689828A83F0225002F722BBFE016B
:02008400F32265
:10008600F8BB010DE58229F582E5833AF583E8F0B0
:10009600225006E92582C8F622BBFE05E92582C85C
:0200A600F22244
:1000A800EF8DF0A4A8F0CF8CF0A428CE8DF0A42E6C
:0200B800FE2226
:1000BA00BC000BBE0029EF8DF084FFADF022E4CC2A
:1000CA00F875F008EF2FFFEE33FEEC33FCEE9DECF3
:1000DA00984005FCEE9DFE0FD5F0E9E4CEFD22ED39
:1000EA00F8F5F0EE8420D21CFEADF075F008EF2F83
:1000FA00FFED33FD4007985006D5F0F222C398FD74
:05010A000FD5F0EA2210
:10010F00C2D5EC30E709B2D5E4C39DFDE49CFCEE0B
:10011F0030E715B2D5E4C39FFFE49EFE1200BAC3C9
:10012F00E49DFDE49CFC80031200BA30D507C3E4C4
:06013F009FFFE49EFE227A
:10014500BB010A89828A83E0F5F0A3E02250068785
:10015500F009E71922BBFE07E3F5F009E319228947
:0B016500828A83E493F5F0740193227A
:10017000BB010A89828A83F0E5F0A3F0225006F7DA
:0F01800009A7F01922BBFE06F3E5F009F31922D7
:00000001FF
