:030000000201AE4C
:0C01AE00787FE4F6D8FD7581250201F58C
:10035000C0F9A4B0999282F880908883C6A1868E55
:10033F00041800000000081C00000000000000006E
:10032C00E4FDEDC39FE49E5009E4FC0CBC02FC0D03
:02033C0080F04F
:01033E00229C
:0602DE00D2B5D2B47F018D
:1002E400E4FDEDC39FE49E500CE4FC0CECD3949429
:0502F40040F90D80ED52
:0102F90022E2
:10023A007F017E001202E4E51890035093F580C214
:10024A00B6D2B71202DEE51993F580D2B6C2B7125A
:10025A0002DEE51A93F580D2B6D2B7C2B51202E031
:0E026A00E51B93F580D2B6D2B7D2B5C2B4224E
:040278008E128F1340
:10027C00E4FBFAAE12AF137C007D0A12007D7418F9
:10028C002BF8A605AE12AF137C007D0A12007D8EF2
:0E029C00128F130BBB00010AEB64044A70D5ED
:0102AA002231
:0402AB008E248F25E9
:1002AF00E4FBFAAE24AF257C007D1012007D74189C
:1002BF002BF8A605AE24AF257C007D1012007D8E95
:0E02CF00248F250BBB00010AEB64044A70D596
:0102DD0022FE
:0602FA008B158A1689171E
:10030000E4FFAB15AA16A9178F82758300E41200CB
:050310005B0FBF08EDCA
:0103150022C5
:100108008B128A1389141202FA75900FE590640F06
:1001180070030201AA20900DAB12AA13A914900033
:10012800017401802220910DAB12AA13A91490002A
:100138000174028012AB12AA13A914900001209234
:100148000474038002740412005B7590F020940A12
:10015800AB12AA13A9147401801C20950AAB12AA29
:1001680013A9147402800FAB12AA13A914209604C1
:10017800740380027404120049AB12AA13A91490E4
:10018800000112001CFD7C0012000324FFFFE43470
:10019800FFFEEF7802C333CE33CED8F92DFFEE3C05
:0601A800FE22E4FEFF222E
:10031600E4F510F5117B007A00791C12010812022F
:060326007812023A80EF9C
:1001BA00020316E493A3F8E493A34003F68001F242
:1001CA0008DFF48029E493A3F85407240CC8C33346
:1001DA00C4540F4420C8834004F456800146F6DF15
:1001EA00E4800B010204081020408090033FE47E63
:1001FA00019360BCA3FF543F30E509541FFEE4930A
:10020A00A360010ECF54C025E060A840B8E493A3D0
:10021A00FAE493A3F8E493A3C8C582C8CAC583CAFB
:10022A00F0A3C8C582C8CAC583CADFE9DEE780BEB3
:01034F0000AD
:10000300BB010689828A83E0225002E722BBFE02FB
:09001300E32289828A83E493222E
:10001C00BB010CE58229F582E5833AF583E0225099
:10002C0006E92582F8E622BBFE06E92582F8E222E3
:0D003C00E58229F582E5833AF583E49322FD
:10004900BB010689828A83F0225002F722BBFE0196
:02005900F32290
:10005B00F8BB010DE58229F582E5833AF583E8F0DB
:10006B00225006E92582C8F622BBFE05E92582C887
:02007B00F2226F
:10007D00C2D5EC30E709B2D5E4C39DFDE49CFCEE9E
:10008D0030E715B2D5E4C39FFFE49EFE1200B3C363
:10009D00E49DFDE49CFC80031200B330D507C3E45E
:0600AD009FFFE49EFE220D
:1000B300BC000BBE0029EF8DF084FFADF022E4CC31
:1000C300F875F008EF2FFFEE33FEEC33FCEE9DECFA
:1000D300984005FCEE9DFE0FD5F0E9E4CEFD22ED40
:1000E300F8F5F0EE8420D21CFEADF075F008EF2F8A
:1000F300FFED33FD4007985006D5F0F222C398FD7B
:050103000FD5F0EA2217
:00000001FF
