:100144002020524541445F524F4D434F524420209A
:1001540000202020202020202020202020202020BB
:10016400200020445331384232302020455252304E
:100174005220002020504C454153452043484543DC
:100184004B2020002054454D503A20202020202090
:10019400202020200054483A2020202020544C3A8B
:1001A4002020202020000C12120C00000000011B53
:0601B4001D191D1B0100D6
:1004A600C1040230000002222010053500000000C1
:1004B60000032500000008280000000000000000DE
:040544007F057E00B1
:10054800EF1FAA0670011E4A600FE4FDEDC394FA7E
:0905580050EE000000000D80F3DC
:010561002277
:10060100C2A2D2A1D2A000000000E580339207C2AD
:03061100A0A2079D
:0106140022C3
:070483007E001205487F0115
:10048A0012060140FBC2A2C2A1C2A000008F8000D6
:0C049A00000000D2A000000000C2A02260
:03058000EE93FFF8
:1005830012060140FBD2A2C2A1C2A08F80000000CC
:0A05930000D2A000000000C2A02268
:100562007F4012048AE4FE9001AA1205800EBE08A2
:0D057200F6E4FE9001B21205800EBE08F600
:01057F002259
:1003CD007F0F1204837F3812048A1205447F38127E
:1003DD00048A1205447F3812048A1205447F0C12D8
:1003ED00048A1205447F0612048A1F120483120523
:0403FD00440205624F
:07000300EF4480FF02048AB4
:040615007F507EC3D1
:0A061900EF1F70011E144E70F7224F
:10040100D2907F087E00120619C2907F5A7E001298
:100411000619D2907F087E00120619A29092037FDE
:0F042100647E00120619D290A203E4FE33FF227C
:1004C700E4FC7D08C290ECC313FCD2903090034348
:0F04D70004807F047E00120619DDE9AF047E0069
:0104E60022F3
:0504E7001204017FCCAE
:0204EC00AD075A
:1004EE007B08C290ED1392907F057E00120619D202
:0704FE0090EDC313FDDBEBE1
:0105050022D3
:100506001204E77F4E1204ECAF221204ECAF231262
:0F05160004EC7F7F1204EC1204E77F480204EC30
:1005BA001204017F331204ECE4FB1204C774282BE3
:0705CA00F8A6070BBB08F3C4
:0105D1002207
:10039800E4F532FF74282FF8E6FEE4FDE5326E201E
:1003A800E008E532C313F532800C633218E532C336
:1003B80013F532433280EEC313FE0DBD08DE0FBFC6
:0403C80008D2AF3276
:0103CC00220E
:02021200AE0735
:10021400BE0105E4FF120003BE02057F4012000385
:10022400E4FE74282EF8E6F52154F0C4540FF53595
:10023400D3940940047437800274302535F535AF02
:1002440035120583E521540FF536D394094004741F
:1002540037800274302536F536AF361205830EBE6C
:0202640008C0D0
:010266002275
:1002BB00C28C1204E77F441204EC1204017F551226
:1002CB0004ECE4FC74282CF8E6FF1204EC0CBC08DC
:1002DB00F37FBE1204EC1204C78F301204C78F31A8
:1002EB001204C78F221204C78F23E531540FC45455
:0F02FB00F0FFE53054F0FEC4540F4FF533D28CB2
:01030A0022D0
:10000E00E4FFE531D3947F4018E530F404F530F485
:10001E0094FF4008E531F404F53180036331FF7F2E
:10002E0001E530540FF53975F00AA4C4540F24308D
:10003E00F535E531540FC454F0FEE53054F0FDC4EF
:10004E00540F4EF53975F064842430F538E5397562
:10005E00F0648485F036E53675F00A842430F53781
:10006E00E53675F00A84E5F02430F536E538B4301F
:10007E000B753820E537B43003753720EF60037504
:10008E00382D7F07120003AF38120583AF371205E4
:10009E0083AF361205837F2E120583AF351205838B
:0A00AE00E4FF1205837F430205837F
:1005D200E4FD7F467E00120619B2B70DBD64F3D268
:0805E200B77FA87E6102061933
:10045C001203CDE4FF120003E4FEEE90014493FF7F
:10046C001205830EBE10F31205BA120398E5327012
:06047C00057F02120212CE
:010482002257
:100430001203CDE4FF120003E4FEEE90016693FF89
:100440001205830EBE10F37F40120003E4FEEE900F
:0B045000017793FF1205830EBE10F32E
:01045B00227E
:100359001203CDE4FF120003E4FEEE90018893FF3F
:100369001205830EBE10F37F40120003E4FEEE90E7
:10037900019993FF1205830EBE10F31202BBE4FD2F
:0F0389007F4312030B7D017F4B12030B02000E0B
:10030B0074222DF8E6FE75F064842430F527EE7523
:10031B00F0648485F025E52575F00A842430F526F4
:10032B00E52575F00A84E5F02430F525E527B43092
:10033B000B752720E526B43003752620120003AF7A
:0E034B0027120583AF26120583AF2502058316
:03000B0002059D4E
:10059D00C0E0C0D0758C4C758A000534E534D39419
:0D05AD00094005753400B200D0D0D0E03216
:1005EA00AE073000071200037F018007AF06120032
:0705FA00037F20120583229C
:10026700E533C395224004D2018002C201E533C3BE
:1002770095235004D2028002C2023001107F461239
:1002870005EA2004031205D2852224800A7F46123C
:1002970000037F2012058330020F7F4E1205EA20EC
:1002A70004031205D2852324227F4E1200037F20E8
:0402B7001205832287
:10052500AC0730000974222DF8A62402030BAF0492
:0F0535001200037F201205831205831205832213
:1001BA00758901758C4CE4F58AD2AFD2A9D28C121A
:1001CA00040112050630030C120430120401120550
:1001DA00D22003F712045CE4FD1206150DBD0AF9DC
:1001EA001203591206151202BB12061512000E123C
:1001FA000267300107E4FD7F431205253002E77DDF
:08020A00017F4B12052580DE87
:030000000200B843
:0C00B800787FE4F6D8FD7581390200FF66
:1000C4000201BAE493A3F8E493A34003F68001F297
:1000D40008DFF48029E493A3F85407240CC8C3333D
:1000E400C4540F4420C8834004F456800146F6DF0C
:1000F400E4800B01020408102040809004A6E47EF2
:10010400019360BCA3FF543F30E509541FFEE49300
:10011400A360010ECF54C025E060A840B8E493A3C7
:10012400FAE493A3F8E493A3C8C582C8CAC583CAF2
:10013400F0A3C8C582C8CAC583CADFE9DEE780BEAA
:0104C6000035
:00000001FF
