:030000000200FFFC
:0C00FF00787FE4F6D8FD758120020146F0
:10032E00C0F9A4B0999282F880908883C6A1868E77
:1002F100010A00040B000000000111FF010FFE01C3
:09030100120001100002080000C6
:10030B00E4FDEDC39FE49E5009E4FC0CBC02FC0D24
:02031B0080F070
:01031D0022BD
:06000E00D2B5D2B47F015F
:10001400E4FDEDC39FE49E500CE4FC0CECD39494FB
:0500240040F90D80ED24
:0100290022B4
:100209007F017E0012001412002E90032E93F580B8
:10021900C2B6D2B712000E90000112004790032E09
:1002290093F580D2B6C2B712000E900002120047B1
:1002390090032E93F580D2B6D2B7C2B512001090B2
:10024900000312004790032E93F580D2B6D2B7D29D
:04025900B5C2B42254
:04025D008E158F1655
:10026100E4FBFAAE15AF167C007D0A120074740B24
:100271002BF8A605AE15AF167C007D0A1200748E10
:0E028100158F160BBB00010AEB64044A70D502
:01028F00224C
:040290008E178F181E
:10029400E4FBFAAE17AF187C007D10120074740BE7
:1002A4002BF8A605AE17AF187C007D101200748ED3
:0E02B400178F180BBB00010AEB64044A70D5CB
:0102C2002219
:10018B00D200E4F513F51412031E12033E851190F1
:10019B00A2009201E5106402705930000B0512E5C4
:1001AB0012B46409B2008005D51202B200AF127E00
:1001BB000012025DE4F510A201300001B3500205FC
:1001CB0013E5136402702CE514C394075009630FF5
:1001DB00FFE50F25E08007630FFFE50FC313F50F56
:1001EB00630FFF8511900514E514B40E03E4F514A9
:0C01FB00E4F5137B007A00790B12020976
:020207008092E3
:03000B000202C32B
:0402C300C0E0C0D007
:1002C700E509646445087009F508F509850F90800C
:1002D7000CE512B50907E4B508038511900509E592
:0502E70009700205088A
:0502EC00D0D0D0E0328B
:03002B00020003CD
:050003000510C2CF3220
:10031E00758902758C64758A64D28CD2A9D2AF228B
:0D033E0075CB4CE4F5CAD2CAD2ADD2AF22C5
:10010B0002018BE493A3F8E493A34003F68001F27E
:10011B0008DFF48029E493A3F85407240CC8C333F5
:10012B00C4540F4420C8834004F456800146F6DFC4
:10013B00E4800B01020408102040809002F1E47E61
:10014B00019360BCA3FF543F30E509541FFEE493B9
:10015B00A360010ECF54C025E060A840B8E493A380
:10016B00FAE493A3F8E493A3C8C582C8CAC583CAAB
:10017B00F0A3C8C582C8CAC583CADFE9DEE780BE63
:01030A0000F2
:10002E00BB010689828A83E0225002E722BBFE02D0
:09003E00E32289828A83E4932203
:10004700BB010CE58229F582E5833AF583E022506E
:1000570006E92582F8E622BBFE06E92582F8E222B8
:0D006700E58229F582E5833AF583E49322D2
:10007400C2D5EC30E709B2D5E4C39DFDE49CFCEEA7
:1000840030E715B2D5E4C39FFFE49EFE1200AAC375
:10009400E49DFDE49CFC80031200AA30D507C3E470
:0600A4009FFFE49EFE2216
:1000AA00BC000BBE0029EF8DF084FFADF022E4CC3A
:1000BA00F875F008EF2FFFEE33FEEC33FCEE9DEC03
:1000CA00984005FCEE9DFE0FD5F0E9E4CEFD22ED49
:1000DA00F8F5F0EE8420D21CFEADF075F008EF2F93
:1000EA00FFED33FD4007985006D5F0F222C398FD84
:0500FA000FD5F0EA2221
:00000001FF
