:0300000002002ECD
:0C002E00787FE4F6D8FD75811D02007596
:10024200C0F9A4B0999282F880908883C6A1868E64
:10023000040800000000090CFFFEFDFBF7EFDFBF24
:010240007F3E
:10021D00E4FDEDC39FE49E5009E4FC0CBC02FC0D13
:02022D0080F05F
:01022F0022AC
:06000300D2B5D2B47F016A
:10000900E4FDEDC39FE49E500CE4FC0CECD3949406
:0500190040F90D80ED2F
:01001E0022BF
:100145007F017E00120009E50890024293F580C206
:10015500B6D2B7120003E50993F580D2B6C2B7123D
:100165000003E50A93F580D2B6D2B7C2B5120005F1
:0E017500E50B93F580D2B6D2B7D2B5C2B42254
:0401B7008E1A8F1BF2
:1001BB00E4FBFAAE1AAF1B7C007D0A1200BA74087E
:1001CB002BF8A605AE1AAF1B7C007D0A1200BA8E67
:0E01DB001A8F1B0BBB00010AEB64044A70D59F
:0101E90022F3
:0401EA008E1C8F1DBB
:1001EE00E4FBFAAE1CAF1D7C007D101200BA740841
:1001FE002BF8A605AE1CAF1D7C007D101200BA8E2A
:0E020E001C8F1D0BBB00010AEB64044A70D567
:01021C0022BF
:10018300E4F516F5177518FF751901D2AF75CB4C49
:10019300F5CAD2ADD2CAC291E515B41412AF17AEE7
:1001A300161201B70517E51770020516E4F51512C7
:0401B300014580E49E
:03002B0002001FB1
:05001F00C2CF051532FF
:10003A00020183E493A3F8E493A34003F68001F258
:10004A0008DFF48029E493A3F85407240CC8C333C7
:10005A00C4540F4420C8834004F456800146F6DF96
:10006A00E4800B0102040810204080900230E47EF4
:10007A00019360BCA3FF543F30E509541FFEE4938B
:10008A00A360010ECF54C025E060A840B8E493A352
:10009A00FAE493A3F8E493A3C8C582C8CAC583CA7D
:1000AA00F0A3C8C582C8CAC583CADFE9DEE780BE35
:0102410000BC
:1000BA00C2D5EC30E709B2D5E4C39DFDE49CFCEE61
:1000CA0030E715B2D5E4C39FFFE49EFE1200F0C3E9
:1000DA00E49DFDE49CFC80031200F030D507C3E4E4
:0600EA009FFFE49EFE22D0
:1000F000BC000BBE0029EF8DF084FFADF022E4CCF4
:10010000F875F008EF2FFFEE33FEEC33FCEE9DECBC
:10011000984005FCEE9DFE0FD5F0E9E4CEFD22ED02
:10012000F8F5F0EE8420D21CFEADF075F008EF2F4C
:10013000FFED33FD4007985006D5F0F222C398FD3D
:050140000FD5F0EA22DA
:00000001FF
