:10019B002052454D4F544520434F4E54524F4C2007
:1001AB0000202049522D434F44453A202D2D482005
:0201BB00200022
:10022700C2A2D2A1D2A000000000E580339201C291
:03023700A0A20181
:01023A0022A1
:1001DB0012022740FBC2A2C2A1C2A000008F800066
:0C01EB00000000D2A000000000C2A02212
:1001F70012022740FBD2A2C2A1C2A08F800000003A
:0A02070000D2A000000000C2A022F7
:10015D007F0F7E001201C17F381201DB1201BD7FBE
:10016D00381201DB1201BD7F381201DB1201BD7F98
:10017D000C1201DB1201BD7F061201DB1F7E001286
:0E018D0001C17F011201DB7F057E000201C16E
:07025900EF4480FF0201DB0E
:10010F0075A881758801D290D2B7D2B67F0A7E00CA
:10011F001201C112015DE4FF120259E4FEEE9001DB
:10012F009B93FF1201F70EBE10F37F40120259E4AA
:10013F00FEEE9001AC93FF1201F70EBE10F3E50A2D
:0E014F00B41D02C2B6E50AB412F4D2B680F0B6
:03000300020006F2
:10000600C0E0C0F0C083C082C0D075D000C000C0C0
:0D00160001C002C003C004C005C006C00741
:10002300751100C2A87F0F12023B309005D2A802BF
:1000330000F42090077F0112023B80F6750F0075D4
:1000430010003090077F0112023B80F62090077F5B
:100053000112023B80F63090137F0112023B05111F
:10006300E511C3941E40EFD2A80200F47408250FD3
:10007300F8C000E6C313D000F6E511C394084009A5
:100083007408250FF8E64480F67511000510E51095
:10009300C3940840AD050FE50FC3940440A1E50BDD
:1000A300F4650A6004D2A88048E50A540FF50DE50B
:1000B3000AC4540FF50EE50DD39409400474378038
:1000C300027430250DF50DE50ED394094004743701
:1000D30080027430250EF50E7F4B120259AF0E12BB
:1000E30001F77F4C120259AF0D1201F7120211D220
:0100F300A864
:1000F400D007D006D005D004D003D002D001D00060
:0B010400D0D0D082D083D0F0D0E03209
:10021100E4F5127F0512023BB2B70512E512C39451
:05022100B440F0D2B76B
:0102260022B5
:10023B00AD071FED600BE4FEEEC3940D50F20E8084
:01024B00F7BB
:01024C00228F
:0401BD007F057E003C
:1001C100EF1FAA0670011E4A600FE4FDEDC394FA09
:0901D10050EE000000000D80F367
:0101DA002202
:0300000002024DAC
:0C024D00787FE4F6D8FD75812002010FD7
:00000001FF
