:030000000201FA00
:0C01FA00787FE4F6D8FD758127020241F1
:10044E00C0F9A4B0999282F880908883C6A1868E56
:1003EC0002190000010900040A00000000071100B6
:0603FC000000000147595A
:10042A00758902758C19758A19051AE51A700205FB
:02043A00192285
:03000B0002045E8E
:0F045E00C0E0C28D051AE51A70020519D0E03210
:10041700E4FDEDC39FE49E5009E4FC0CBC02FC0D17
:0204270080F063
:0104290022B0
:0603A100D2B5D2B47F01C9
:1003A700E4FDEDC39FE49E500CE4FC0CECD3949465
:0503B70040F90D80ED8E
:0103BC00221E
:100286007F017E001203A712000E90044E93F580A4
:10029600C2B6D2B71203A190000112002790044EF5
:1002A60093F580D2B6C2B71203A1900002120027BE
:1002B60090044E93F580D2B6D2B7C2B51203A3907E
:1002C600000312002790044E93F580D2B6D2B7D21F
:0402D600B5C2B422D7
:040319008E248F257A
:10031D00E4FBFAAE24AF257C007D0A120054740A6A
:10032D002BF8A605AE24AF257C007D0A1200548E55
:0E033D00248F250BBB00010AEB64044A70D527
:01034B00228F
:04034C008E268F2743
:10035000E4FBFAAE26AF277C007D10120054740A2D
:100360002BF8A605AE26AF277C007D101200548E18
:0E037000268F270BBB00010AEB64044A70D5F0
:01037E00225C
:10043C007E08EF1392B2D29400C294EFC313FFDE86
:01044C00F1BE
:01044D00228C
:1003BD00E4FF7E08D2B2EFC313FF30B203430780D0
:0703CD00D29400C294DEEDA2
:0103D4002206
:1003D500C2B300C29400D2B312043C00AF051204AC
:0703E5003CD29400C2B322D8
:10040300C2B300C29400D2B312043C1203BDD2940F
:0304130000C2B371
:0104160022C3
:1002DA00E4FD7F8E1203D5AD117F8C1203D5AD12CA
:1002EA007F881203D5AD137F861203D5AD147F8A9A
:1002FA001203D5AD157F841203D5AD167F82120382
:0F030A00D5AD177F801203D57D807F8E0203D57E
:060129008B1F8A208921D2
:10012F0075230112008AFFAEF0E5F060030201E7CC
:10013F00EF246F601824FC6052249560030201E7DE
:10014F00AB1FAA20A921E475F0911200B5C3E51ADF
:10015F0094E8E51994034003D38001C34002803C27
:10016F007F831204038F22E4FDFF1203D5E522C41F
:10017F00540F75F00AA4FFE522540F2FF50EAB1F95
:10018F00AA20A921E475F0951200B5C3E51A94D001
:10019F00E51994074003D38001C34004E4FEFF2216
:1001AF007F851204038F22E4FDFF1203D5E522C4DD
:1001BF00540F75F00AA4FFE522540F2FF51CE4F538
:1001CF0019F51AE51C75F064A47C00250EFFEC35BB
:1001DF00F0FE12031902014FE4F523AB1FAA20A969
:0A01EF0021F5F01200B57E007F0339
:0101F90022E3
:10037F00E4F51DF51E12042AD2AFD2A9D28C7B0050
:10038F007A00791D1201297B007A00790A12028600
:02039F0080ECF0
:1002060002037FE493A3F8E493A34003F68001F28C
:1002160008DFF48029E493A3F85407240CC8C333F9
:10022600C4540F4420C8834004F456800146F6DFC8
:10023600E4800B01020408102040809003ECE47E69
:10024600019360BCA3FF543F30E509541FFEE493BD
:10025600A360010ECF54C025E060A840B8E493A384
:10026600FAE493A3F8E493A3C8C582C8CAC583CAAF
:10027600F0A3C8C582C8CAC583CADFE9DEE780BE67
:0104020000F9
:10000E00BB010689828A83E0225002E722BBFE02F0
:09001E00E32289828A83E4932223
:10002700BB010CE58229F582E5833AF583E022508E
:1000370006E92582F8E622BBFE06E92582F8E222D8
:0D004700E58229F582E5833AF583E49322F2
:10005400C2D5EC30E709B2D5E4C39DFDE49CFCEEC7
:1000640030E715B2D5E4C39FFFE49EFE1200D4C36B
:10007400E49DFDE49CFC80031200D430D507C3E466
:060084009FFFE49EFE2236
:10008A00BB010A89828A83E0F5F0A3E02250068741
:10009A00F009E71922BBFE07E3F5F009E319228903
:0B00AA00828A83E493F5F07401932236
:1000B500BB010A89828A83F0E5F0A3F0225006F796
:0F00C50009A7F01922BBFE06F3E5F009F3192293
:1000D400BC000BBE0029EF8DF084FFADF022E4CC10
:1000E400F875F008EF2FFFEE33FEEC33FCEE9DECD9
:1000F400984005FCEE9DFE0FD5F0E9E4CEFD22ED1F
:10010400F8F5F0EE8420D21CFEADF075F008EF2F68
:10011400FFED33FD4007985006D5F0F222C398FD59
:050124000FD5F0EA22F6
:00000001FF
