:03000000020235C4
:0C023500787FE4F6D8FD75812C02027C75
:10051100C0F9A4B0999282F880908883C6A1868E92
:1004A000010B00040C000000000814000000000014
:1004B00000000001100001130002110000021C00E6
:0804C0000002080000010A3CE3
:1004FE00E4FDEDC39FE49E5009E4FC0CBC02FC0D30
:02050E0080F07B
:0105100022C8
:06000300D2B5D2B47F016A
:10000900E4FDEDC39FE49E500CE4FC0CECD3949406
:0500190040F90D80ED2F
:01001E0022BF
:1003E6007F017E0012000912002E90051193F58000
:1003F600C2B6D2B712000390000112004790051151
:1004060093F580D2B6C2B7120003900002120047DD
:1004160090051193F580D2B6D2B7C2B512000590F9
:10042600000312004790051193F580D2B6D2B7D2D9
:04043600B5C2B42275
:04043A008E1F8F2062
:10043E00E4FBFAAE1FAF207C007D0A12010F740C94
:10044E002BF8A605AE1FAF207C007D0A12010F8E81
:0E045E001F8F200BBB00010AEB64044A70D50F
:01046C00226D
:04046D008E2B8F2C17
:10047100E4FBFAAE2BAF2C7C007D1012010F740C43
:100481002BF8A605AE2BAF2C7C007D1012010F8E30
:0E0491002B8F2C0BBB00010AEB64044A70D5C4
:01049F00223A
:0604C9008B258A2689271D
:1004CF00E4FFAB25AA26A9278F82758300E41200CB
:0504DF00860FBF08EDCF
:0104E40022F5
:10018F008B288A29892A1204C975900FE590640F6C
:10019F00700302023120900DAB28AA29A92A9000E2
:1001AF00017401802220910DAB28AA29A92A900061
:1001BF000174028012AB28AA29A92A90000120926B
:1001CF00047403800274041200867590F020940A60
:1001DF00AB28AA29A92A7401801C20950AAB28AA4A
:1001EF0029A92A7402800FAB28AA29A92A209604CC
:1001FF00740380027404120074AB28AA29A92A90F0
:10020F000001120047FD7C0012002E24FFFFE43492
:10021F00FFFEEF7802C333CE33CED8F92DFFEE3C7D
:06022F00FE22E4FEFF22A6
:10038E001204E5120530E510B4010FC2ACE4F5100D
:10039E00851E993099FDC299D2ACE513D3940340D2
:1003AE00E5C2ACD2ADD2CAE512B4B01AE511B404AE
:1003BE0015051DE51D7002051CE4F511F512FB7AFD
:1003CE0000791C1202C1AF1DAE1C12043A7B007ADA
:0803DE0000790C1203E680C255
:0300230002032DA8
:10032D00C0E0C0F0C0D075D000C000C004C005C092
:03033D0006C007F0
:1003400030983AC298751001051385991EE5094544
:10035000086022AE1CAF1D7C007D0A1200A88E1C16
:100360008F1DE51E24D0FFE434FFFEEF251DF51D93
:0D037000EE351CF51C0509E50970020508B5
:10037D00D007D006D005D004D000D0D0D0F0D0E03A
:01038D00323D
:1004E500758920E4F587D29CC29FD29E758DFD75D6
:0904F5008BFDD28ED2ACD2AF22F5
:0705300075CB4CE4F5CA2273
:03002B00020521AA
:0F052100C0E0C2CF0512E51270020511D0E03222
:0602C1008B1F8A20892139
:0602C700E50A643C705DD5
:1002CD00120145FBAAF07C007D64FFAE021200BA5C
:1002DD008D227C007D64AF03AE021200BA8F23E540
:1002ED002275F03C84F524E52275F03C8485F022DE
:1002FD00E5242523F523B41803E4F523E52375F050
:10030D0064A47C002522FFEC35F0AB1FAA20A921A7
:0C031D008FF0120170E5227006750A01D5
:0303290022050AA0
:01032C0022AE
:1002410002038EE493A3F8E493A34003F68001F242
:1002510008DFF48029E493A3F85407240CC8C333BE
:10026100C4540F4420C8834004F456800146F6DF8D
:10027100E4800B01020408102040809004A0E47E79
:10028100019360BCA3FF543F30E509541FFEE49382
:10029100A360010ECF54C025E060A840B8E493A349
:1002A100FAE493A3F8E493A3C8C582C8CAC583CA74
:1002B100F0A3C8C582C8CAC583CADFE9DEE780BE2C
:0104C8000033
:10002E00BB010689828A83E0225002E722BBFE02D0
:09003E00E32289828A83E4932203
:10004700BB010CE58229F582E5833AF583E022506E
:1000570006E92582F8E622BBFE06E92582F8E222B8
:0D006700E58229F582E5833AF583E49322D2
:10007400BB010689828A83F0225002F722BBFE016B
:02008400F32265
:10008600F8BB010DE58229F582E5833AF583E8F0B0
:10009600225006E92582C8F622BBFE05E92582C85C
:0200A600F22244
:1000A800EF8DF0A4A8F0CF8CF0A428CE8DF0A42E6C
:0200B800FE2226
:1000BA00BC000BBE0029EF8DF084FFADF022E4CC2A
:1000CA00F875F008EF2FFFEE33FEEC33FCEE9DECF3
:1000DA00984005FCEE9DFE0FD5F0E9E4CEFD22ED39
:1000EA00F8F5F0EE8420D21CFEADF075F008EF2F83
:1000FA00FFED33FD4007985006D5F0F222C398FD74
:05010A000FD5F0EA2210
:10010F00C2D5EC30E709B2D5E4C39DFDE49CFCEE0B
:10011F0030E715B2D5E4C39FFFE49EFE1200BAC3C9
:10012F00E49DFDE49CFC80031200BA30D507C3E4C4
:06013F009FFFE49EFE227A
:10014500BB010A89828A83E0F5F0A3E02250068785
:10015500F009E71922BBFE07E3F5F009E319228947
:0B016500828A83E493F5F0740193227A
:10017000BB010A89828A83F0E5F0A3F0225006F7DA
:0F01800009A7F01922BBFE06F3E5F009F31922D7
:00000001FF
