:03000000020251A8
:0C025100787FE4F6D8FD75812D0202983C
:10059700303000486F6C6C6F20576F726C642100AD
:1005850002250000012300022100000124000127AB
:01059500A0C5
:10057300758902758C19758A190526E52670020599
:0205830025222F
:03000B000205A744
:0F05A700C0E0C28D0526E52670020525D0E032A2
:0704EB0012016A7F5A7E0036
:1004F200E4FDEDC39FE49E5009E4FC0CBC02FC0D3C
:0205020080F087
:0105040022D4
:10053400E4FDEDC39FE49E500CE4FC0CECD39494D6
:0505440040F90D80EDFF
:01054900228F
:10051D00C2A1A20192A28F807F057E001204F2D2A9
:07052D00A01204F2C2A0229B
:10054A00120124FF600ED20112051D740129F9E47B
:05055A003AFA80EC22DA
:06041F00151FA81FA6072F
:10042500A81FE6601975F00A84FF12041FA81FE6CD
:1004350075F00A84E5F02430FFD20112051DE5228E
:0B04450045217007D2017F3012051D19
:03045000051F2263
:0D05B600D2AF75CB4CE4F5CAD2ADD2CA224B
:03002B00020003CD
:05000300C2CF0524320C
:10000E00D2A70000000000D2A60000000000C2A788
:0D001E000000000000C2A60000000000224B
:0804C90012000EAF27120453CC
:1004D100D2A730A70BE518C394FA5004051880F28F
:0904E100D2A60000000000C2A632
:0104EA0022EF
:10045300C2A60000000000E4FEEF25E0FF92A70023
:1004630000000000D2A60000000000C2A6000000A9
:0D04730000000EBE08E3D2A700000000004C
:010480002259
:10048100E4FF0000000000D2A7FED2A60000000099
:1004910000EF25E0FF30A7010FC2A6000000000019
:0404A1000EBE08E69D
:0104A5002234
:10055F00C2A700D2A60000000000D2A70000000032
:04056F0000C2A622FE
:10050500AC071204C9AF041204531204D1AF05128B
:0805150004531204D102055F3A
:08034E008F288B298A2A892BD4
:100356001204C9AF281204531204D1E4F52DE52D79
:10036600C3952C5040E52D601D5407701912055F8A
:100376007F5AFE1204F21204C9E5282408FFF52864
:100386001204531204D1AB29AA2AA92B852D8275F2
:10039600830012013DFF1204531204D10000000035
:0803A60000052D80B902055F7E
:0204A600AD07A0
:1004A800E4FF1204C9AF051204531204D112000E5E
:1004B800E52704FF1204531204D112048112055FC8
:0104C8002211
:0203E9008F1B68
:1003EB00781C7C007D007BFF7A0579977E007F036C
:1003FB001200FEE51B75F00A84E5F02430F51DE5CF
:10040B001B75F00A84F51B2430F51C7B007A0079F0
:04041B001C02054A70
:1003AE008B188A19891A120124FF1203E9D2017FD0
:1003BE003A12051DAB18AA19A91A90000112013D97
:1003CE00FF1203E9D2017F3A12051DAB18AA19A933
:0B03DE001A90000212013DFF0203E92B
:1001BF00E52464146003020250F5247F5AFE1204F2
:1001CF00F2C2017FC012051D900002740112018C52
:1001DF0090000212013DFD7F0212050590000212F0
:1001EF00013DD36480F8743C6480985051900002B4
:1001FF0074C412018C900001740112018C1204EE70
:10020F0090000112013DFD7F0112050590000112C2
:10021F00013DC3648094BC402590000174C4120159
:10022F008C74011204EB120124FDE4FF1205051278
:10023F000124C364809498400574E81204EB120300
:02024F00AE22DD
:1002DD00780B7C007D007BFF7A05799A7E007F0D7F
:1002ED001200FE12000EE4FF1204A68F081204EE97
:1002FD007F011204A68F091204EE7F021204A68F4D
:10030D000A1204EE1205B6C2017F3812051DC20194
:10031D007F0C12051DC2017F0612051DC2017F80D3
:10032D0012051D7B007A00790B12054AC2017FC0B0
:10033D0012051DE4F5247B007A0079081201BF80B7
:01034D00F5BA
:10025D000202DDE493A3F8E493A34003F68001F2D8
:10026D0008DFF48029E493A3F85407240CC8C333A2
:10027D00C4540F4420C8834004F456800146F6DF71
:10028D00E4800B0102040810204080900585E47E77
:10029D00019360BCA3FF543F30E509541FFEE49366
:1002AD00A360010ECF54C025E060A840B8E493A32D
:1002BD00FAE493A3F8E493A3C8C582C8CAC583CA58
:1002CD00F0A3C8C582C8CAC583CADFE9DEE780BE10
:010596000064
:10002E00E709F608DFFA8046E709F208DFFA803EB4
:10003E0088828C83E709F0A3DFFA8032E309F608A1
:10004E00DFFA8078E309F208DFFA807088828C8309
:10005E00E309F0A3DFFA806489828A83E0A3F608BD
:10006E00DFFA805889828A83E0A3F208DFFA804C97
:10007E0080D280FA80C680D4806980F2803380106E
:10008E0080A680EA809A80A880DA80E280CA8033D7
:10009E0089828A83ECFAE493A3C8C582C8CCC5834F
:1000AE00CCF0A3C8C582C8CCC583CCDFE9DEE7801F
:1000BE000D89828A83E493A3F608DFF9ECFAA9F09E
:1000CE00EDFB2289828A83ECFAE0A3C8C582C8CCF4
:1000DE00C583CCF0A3C8C582C8CCC583CCDFEADE0D
:1000EE00E880DB89828A83E493A3F208DFF980CC6F
:1000FE0088F0EF60010E4E60C388F0ED2402B40468
:10010E000050B9F582EB2402B4040050AF2323450E
:06011E00822390007E73B5
:10012400BB010689828A83E0225002E722BBFE02D9
:09013400E32289828A83E493220C
:10013D00BB010CE58229F582E5833AF583E0225077
:10014D0006E92582F8E622BBFE06E92582F8E222C1
:0D015D00E58229F582E5833AF583E49322DB
:10016A00BB010989828A83F8E028F022500327F725
:10017A0022BBFE05F8E328F3228A838982F8E493F6
:02018A00282229
:10018C00BB010FF8E58229F582E5833AF583E02877
:10019C00F0225009C58229F8E58226F622BBFE0919
:1001AC00C58229F8E22582F222F8EA2583F583E953
:0301BC0093282263
:00000001FF
