:030000000202BA3F
:0C02BA00787FE4F6D8FD7581490203014D
:1004C800C0F9A4B0999282F880908883C6A1868EDC
:1004D800000102030405060708090A0B0C0D0E0F9C
:1004E80010000000000000000000000000000000F4
:1005C0000108000409000000000116A0080E000048
:0905D000000000000000010D0014
:10060600E4FDEDC39FE49E5009E4FC0CBC02FC0D26
:0206160080F072
:0106180022BF
:06058800D2B5D2B47F01E0
:10058E00E4FDEDC39FE49E500CE4FC0CECD394947C
:05059E0040F90D80EDA5
:0105A3002235
:100424007F017E0012058EE5099004C893F580C211
:10043400B6D2B7120588E50A93F580D2B6C2B712D0
:100444000588E50B93F580D2B6D2B7C2B512058AFA
:0E045400E50C93F580D2B6D2B7D2B5C2B42271
:040462008E438F44F2
:10046600E4FBFAAE43AF447C007D0A12019E740998
:100476002BF8A605AE43AF447C007D0A12019E8E82
:0E048600438F440BBB00010AEB64044A70D59F
:010494002245
:040495008E1D8F1E0B
:10049900E4FBFAAE1DAF1E7C007D1012019E7409AB
:1004A9002BF8A605AE1DAF1E7C007D1012019E8E95
:0E04B9001D8F1E0BBB00010AEB64044A70D5B8
:0104C7002212
:10056B00D2A70000000000D2A60000000000C2A726
:0D057B000000000000C2A6000000000022E9
:0805490012056BAF161204F855
:10055100D2A730A70BE549C394FA5004054980F2AC
:09056100D2A60000000000C2A6B1
:01056A00226E
:1004F800C2A60000000000E4FEEF25E0FF92A7007E
:1005080000000000D2A60000000000C2A600000003
:0D05180000000EBE08E3D2A70000000000A6
:0105250022B3
:10000300E4FF0000000000D2A7FED2A6000000001B
:1000130000EF25E0FF30A7010FC2A600000000009B
:040023000EBE08E61F
:0100270022B6
:1005F200C2A700D2A60000000000D2A7000000009F
:0406020000C2A6226A
:1005DA00AC07120549AF041204F8120551AF05120F
:0805EA0004F81205510205F2AC
:0803C4008F438B448A458946F2
:1003CC00120549AF431204F8120551E4F548E5480B
:1003DC00C395475040E548601D540770191205F24B
:1003EC007F5AFE120606120549E5432408FFF54321
:1003FC001204F8120551AB44AA45A94685488275EA
:10040C00830012013DFF1204F81205510000000098
:08041C0000054880B90205F259
:02052600AD071F
:10052800E4FF120549AF051204F812055112056BD4
:10053800E51604FF1204F81205511200031205F221
:010548002290
:0605A4008B178A1889196B
:1005AA00E4FFAB17AA18A9198F82758300E4120118
:0505BA007C0FBF08EDFD
:0105BF002219
:100229008B1A8A1B891C1205A475900FE590640F1F
:10023900607C20900DAB1AAA1BA91C9000017401C7
:10024900802220910DAB1AAA1BA91C9000017402EF
:100259008012AB1AAA1BA91C9000012092047403F6
:100269008002740412017C7590F020940AAB1AAADA
:100279001BA91C7401801C20950AAB1AAA1BA91C76
:100289007402800FAB1AAA1BA91C20960474038060
:1002990002740412016AAB1AAA1BA91C900001126C
:1002A900013DFF1201241425E025E02FFF227F00E4
:0102B9002222
:0D061900D2AF75CB4CE4F5CAD2ADD2CA22E7
:03002B00020626A4
:05062600C2CF050D32FA
:10034600E4FF1205267521008F2278237C007D00AC
:100356007BFF7A0479D87E007F201200FEE52224F6
:1003660008FF1205267E001204621206197B007A27
:100376000079237547147F081203C47F5A7E001242
:100386000606E50D640A7031F50DC3E5229412E503
:100396002164809480501DE5222408FF1205267EE4
:1003A600001204620522E52270020521FDE4FF1217
:0E03B60005DA8005E4F521F52212042480C446
:1002C600020346E493A3F8E493A34003F68001F205
:1002D60008DFF48029E493A3F85407240CC8C33339
:1002E600C4540F4420C8834004F456800146F6DF08
:1002F600E4800B01020408102040809005C0E47ED3
:10030600019360BCA3FF543F30E509541FFEE493FC
:10031600A360010ECF54C025E060A840B8E493A3C3
:10032600FAE493A3F8E493A3C8C582C8CAC583CAEE
:10033600F0A3C8C582C8CAC583CADFE9DEE780BEA6
:0105D9000021
:10002E00E709F608DFFA8046E709F208DFFA803EB4
:10003E0088828C83E709F0A3DFFA8032E309F608A1
:10004E00DFFA8078E309F208DFFA807088828C8309
:10005E00E309F0A3DFFA806489828A83E0A3F608BD
:10006E00DFFA805889828A83E0A3F208DFFA804C97
:10007E0080D280FA80C680D4806980F2803380106E
:10008E0080A680EA809A80A880DA80E280CA8033D7
:10009E0089828A83ECFAE493A3C8C582C8CCC5834F
:1000AE00CCF0A3C8C582C8CCC583CCDFE9DEE7801F
:1000BE000D89828A83E493A3F608DFF9ECFAA9F09E
:1000CE00EDFB2289828A83ECFAE0A3C8C582C8CCF4
:1000DE00C583CCF0A3C8C582C8CCC583CCDFEADE0D
:1000EE00E880DB89828A83E493A3F208DFF980CC6F
:1000FE0088F0EF60010E4E60C388F0ED2402B40468
:10010E000050B9F582EB2402B4040050AF2323450E
:06011E00822390007E73B5
:10012400BB010689828A83E0225002E722BBFE02D9
:09013400E32289828A83E493220C
:10013D00BB010CE58229F582E5833AF583E0225077
:10014D0006E92582F8E622BBFE06E92582F8E222C1
:0D015D00E58229F582E5833AF583E49322DB
:10016A00BB010689828A83F0225002F722BBFE0174
:02017A00F3226E
:10017C00F8BB010DE58229F582E5833AF583E8F0B9
:10018C00225006E92582C8F622BBFE05E92582C865
:02019C00F2224D
:10019E00C2D5EC30E709B2D5E4C39DFDE49CFCEE7C
:1001AE0030E715B2D5E4C39FFFE49EFE1201D4C31F
:1001BE00E49DFDE49CFC80031201D430D507C3E41A
:0601CE009FFFE49EFE22EB
:1001D400BC000BBE0029EF8DF084FFADF022E4CC0F
:1001E400F875F008EF2FFFEE33FEEC33FCEE9DECD8
:1001F400984005FCEE9DFE0FD5F0E9E4CEFD22ED1E
:10020400F8F5F0EE8420D21CFEADF075F008EF2F67
:10021400FFED33FD4007985006D5F0F222C398FD58
:050224000FD5F0EA22F5
:00000001FF
