:03000000020111E9
:0C011100787FE4F6D8FD758120020158CB
:10043900C0F9A4B0999282F880908883C6A1868E6B
:0C045600010800040900000000010D0076
:10040400E4FDEDC39FE49E5009E4FC0CBC02FC0D2A
:0204140080F076
:0104160022C3
:0603A200D2B5D2B47F01C8
:1003A800E4FDEDC39FE49E500CE4FC0CECD3949464
:0503B80040F90D80ED8D
:0103BD00221D
:10019D007F017E001203A812002E90043993F58082
:1001AD00C2B6D2B71203A2900001120047900439D3
:1001BD0093F580D2B6C2B71203A290000212004787
:1001CD0090043993F580D2B6D2B7C2B51203A4907C
:1001DD00000312004790043993F580D2B6D2B7D2FE
:0401ED00B5C2B422C1
:04029A008E0F8F1024
:10029E00E4FBFAAE0FAF107C007D0A1200867409E3
:1002AE002BF8A605AE0FAF107C007D0A1200868ECD
:0E02BE000F8F100BBB00010AEB64044A70D5D1
:0102CC00220F
:0402CD008E118F12ED
:1002D100E4FBFAAE11AF127C007D101200867409A6
:1002E1002BF8A605AE11AF127C007D101200868E90
:0E02F100118F120BBB00010AEB64044A70D59A
:0102FF0022DC
:1003BE00D2A60000000000D2A70000000000C2A7D5
:0803CE000000000000C2A6229D
:10038500C2A60000000000C2A70000000000D2A61F
:0D0395000000000000D2A7000000000022C0
:10000300300204C2A78002D2A70000000000D2A6DB
:100013000000000000C2A60000000000D2A70000FC
:0400230000000022B7
:030347001203247A
:10034A00D2A70000000000D2A6000000000030A7DB
:0C035A0007C2A6120385D322C2A6C3224C
:10032400E4FEEF30E704D2A78002C2A70000000079
:1003340000D2A6EF25E0FF0000000000C2A60EBE1A
:0203440008E0CF
:010346002294
:10036600E4FED2A60000000000EF25E0FF30A70360
:0E037600430701C2A600000000000EBE08E40E
:010384002256
:10026600AD071203BE7F90120347500122AF05125D
:1002760003475001221203BE7F9112032412034A40
:10028600500122120366EF120074C202120003121A
:040296000385C322F7
:10041700C2AB758921759850758DFD758BFDD28E90
:0104270022B2
:080463008F993099FDC2992226
:0D04490075CB4CE4F5CAD2ADD2CAD2AF22B9
:03002B0002046B61
:05046B00C2CF050D32B7
:10022D00120449120417E50DD3940A40137B007A8A
:10023D0000790E7F41120266AF0E120463E4F50DD4
:10024D00AF0E7E0012029A7B007A00790912019D91
:09025D007F017E0012040480CD33
:1003EE00D2B600D2950000000000C2B60000000098
:0603FE0000C29500002280
:10042800C2B600D2950000000000D2B6000000005D
:0104380022A1
:1001F100E4FEEFA806088002C333D8FC30E704D23E
:10020100B68002C2B600D2950000000000C2950E71
:10021100BE08DF0000D2B60000D29500000030B663
:0B02210004C2018002D201C29500005F
:01022C0022AF
:10030000E4FFD2B6FE00C2950000000000D29500C6
:1003100000EF25E0FF30B6010F00000EBE08E6C278
:0303200095000045
:0103230022B7
:1003D600200004C2B68002D2B6000000D29500000A
:0803E600000000C29500002296
:10011D0002022DE493A3F8E493A34003F68001F2C9
:10012D0008DFF48029E493A3F85407240CC8C333E3
:10013D00C4540F4420C8834004F456800146F6DFB2
:10014D00E4800B0102040810204080900456E47EE8
:10015D00019360BCA3FF543F30E509541FFEE493A7
:10016D00A360010ECF54C025E060A840B8E493A36E
:10017D00FAE493A3F8E493A3C8C582C8CAC583CA99
:10018D00F0A3C8C582C8CAC583CADFE9DEE780BE51
:010462000099
:10002E00BB010689828A83E0225002E722BBFE02D0
:09003E00E32289828A83E4932203
:10004700BB010CE58229F582E5833AF583E022506E
:1000570006E92582F8E622BBFE06E92582F8E222B8
:0D006700E58229F582E5833AF583E49322D2
:10007400BB010689828A83F0225002F722BBFE016B
:02008400F32265
:10008600C2D5EC30E709B2D5E4C39DFDE49CFCEE95
:1000960030E715B2D5E4C39FFFE49EFE1200BCC351
:1000A600E49DFDE49CFC80031200BC30D507C3E44C
:0600B6009FFFE49EFE2204
:1000BC00BC000BBE0029EF8DF084FFADF022E4CC28
:1000CC00F875F008EF2FFFEE33FEEC33FCEE9DECF1
:1000DC00984005FCEE9DFE0FD5F0E9E4CEFD22ED37
:1000EC00F8F5F0EE8420D21CFEADF075F008EF2F81
:1000FC00FFED33FD4007985006D5F0F222C398FD72
:05010C000FD5F0EA220E
:00000001FF
