:030000000200FFFC
:0C00FF00787FE4F6D8FD758120020146F0
:1002E400C0F9A4B0999282F880908883C6A1868EC2
:1002D100010A00040B00000000011000010F0001E1
:0202E10011000A
:1002BE00E4FDEDC39FE49E5009E4FC0CBC02FC0D72
:0202CE0080F0BE
:0102D000220B
:06000E00D2B5D2B47F015F
:10001400E4FDEDC39FE49E500CE4FC0CECD39494FB
:0500240040F90D80ED24
:0100290022B4
:10018B007F017E0012001412002E9002E493F58082
:10019B00C2B6D2B712000E9000011200479002E4D3
:1001AB0093F580D2B6C2B712000E90000212004730
:1001BB009002E493F580D2B6D2B7C2B5120010907C
:1001CB0000031200479002E493F580D2B6D2B7D267
:0401DB00B5C2B422D3
:04022A008E148F158A
:10022E00E4FBFAAE14AF157C007D0A120074740B59
:10023E002BF8A605AE14AF157C007D0A1200748E45
:0E024E00148F150BBB00010AEB64044A70D537
:01025C00227F
:04025D008E128F135B
:10026100E4FBFAAE12AF137C007D10120074740B24
:100271002BF8A605AE12AF137C007D101200748E10
:0E028100128F130BBB00010AEB64044A70D508
:01028F00224C
:1001DF00D200758902758CD2758AD2D28CD2A912AF
:1001EF0002F4D2AF7590FFE50F6403702330000463
:1001FF00051080021510E510C394644002C200E59B
:10020F00107002D200E4F50F0511AF11FE12022A91
:0B021F007B007A00790B12018B80CC71
:03000B000202905E
:04029000C0E0C0D03A
:100294000509E50970020508B4580EE508B4020919
:1002A400750800750900759000E510B50907E4B5F7
:0502B40008037590FF36
:0502B900D0D0D0E032BE
:0D02F40075CB4CE4F5CAD2ADD2CAD2AF2210
:03002B00020003CD
:05000300C2CF050F3221
:10010B000201DFE493A3F8E493A34003F68001F22A
:10011B0008DFF48029E493A3F85407240CC8C333F5
:10012B00C4540F4420C8834004F456800146F6DFC4
:10013B00E4800B01020408102040809002D1E47E81
:10014B00019360BCA3FF543F30E509541FFEE493B9
:10015B00A360010ECF54C025E060A840B8E493A380
:10016B00FAE493A3F8E493A3C8C582C8CAC583CAAB
:10017B00F0A3C8C582C8CAC583CADFE9DEE780BE63
:0102E300001A
:10002E00BB010689828A83E0225002E722BBFE02D0
:09003E00E32289828A83E4932203
:10004700BB010CE58229F582E5833AF583E022506E
:1000570006E92582F8E622BBFE06E92582F8E222B8
:0D006700E58229F582E5833AF583E49322D2
:10007400C2D5EC30E709B2D5E4C39DFDE49CFCEEA7
:1000840030E715B2D5E4C39FFFE49EFE1200AAC375
:10009400E49DFDE49CFC80031200AA30D507C3E470
:0600A4009FFFE49EFE2216
:1000AA00BC000BBE0029EF8DF084FFADF022E4CC3A
:1000BA00F875F008EF2FFFEE33FEEC33FCEE9DEC03
:1000CA00984005FCEE9DFE0FD5F0E9E4CEFD22ED49
:1000DA00F8F5F0EE8420D21CFEADF075F008EF2F93
:1000EA00FFED33FD4007985006D5F0F222C398FD84
:0500FA000FD5F0EA2221
:00000001FF
