:030000000201ED0D
:0C01ED00787FE4F6D8FD75812002023412
:10042200C0F9A4B0999282F880908883C6A1868E82
:1004110002150000010C00040D00000000010AFF9C
:1003FF00758902758C19758A190516E5167002052F
:02040F001522B4
:03000B00020432BA
:0F043200C0E0C28D0516E51670020515D0E03248
:1003EC00E4FDEDC39FE49E5009E4FC0CBC02FC0D43
:0203FC0080F08F
:0103FE0022DC
:1003D600E4FDEDC39FE49E500CE4FC0CECD3949436
:0503E60040F90D80ED5F
:0103EB0022EF
:1002E70012000E90042293F580C2B6D2B7D2B5D2CF
:1002F700B47F017E001203D69000011200279004FC
:100307002293F580D2B6C2B7D2B5D2B47F01120319
:10031700D690000212002790042293F580D2B6D21D
:10032700B7C2B5D2B47F011203D6900003120027DB
:0F03370090042293F580D2B6D2B7D2B5C2B422C9
:040346008E1D8F1E5B
:10034A00E4FBFAAE1DAF1E7C007D0A1200A9740DF3
:10035A002BF8A605AE1DAF1E7C007D0A1200A98EE1
:0E036A001D8F1E0BBB00010AEB64044A70D508
:010378002262
:040379008E1F8F2024
:10037D00E4FBFAAE1FAF207C007D101200A9740DB6
:10038D002BF8A605AE1FAF207C007D101200A98EA4
:0E039D001F8F200BBB00010AEB64044A70D5D1
:0103AB00222F
:060279008B198A1A891B93
:10027F00751C011200DFFFE5F0704AEF24F36011E7
:10028F00240D7041AB19AA1AA91BE475F00D1201C8
:10029F000AAE15AF167C007D05120054ED4C6004BC
:1002AF00E4FEFF227B007A00790D1202E70509E5D3
:1002BF0009AE087002050814FF7C007D0A1200A920
:1002CF0012034680BFE4F51CAB19AA1AA91BF5F05F
:0702DF0012010A7E007F03FB
:0102E60022F5
:060129008B198A1A891BE4
:10012F00751C011200DFFFE5F060030201DAEF2416
:10013F00E4601B24FA6055242260030201DAE4F51F
:10014F000BAB19AA1AA91BE475F01C12010AE50BD7
:10015F0075F0C8A424C8FFE435F0FEC3E5169FE58B
:10016F00159E4003D38001C34002803D850A90E570
:10017F000A25E0F50A050BE50BB409C5E4F50BAB51
:10018F0019AA1AA91BE475F02212010AE50B75F0E2
:10019F00C8A424D0FFE5F03407FEC3E5169FE5158C
:1001AF009E4003D38001C34004E4FEFF22630AFF95
:1001BF00E50AC313F50A630AFF850A90050BE50BE1
:1001CF00B408BCE4F515F51602014DE4F51CAB19A6
:0D01DF00AA1AA91BF5F012010A7E007F0389
:0101EC0022F0
:1003AC001203FFD2AFD2A9D28CE4F511F512F513DA
:1003BC00F514F517F5187B007A0079111201297BD9
:0A03CC00007A00791312027980EC28
:1001F9000203ACE493A3F8E493A34003F68001F26D
:1002090008DFF48029E493A3F85407240CC8C33306
:10021900C4540F4420C8834004F456800146F6DFD5
:10022900E4800B0102040810204080900411E47E50
:10023900019360BCA3FF543F30E509541FFEE493CA
:10024900A360010ECF54C025E060A840B8E493A391
:10025900FAE493A3F8E493A3C8C582C8CAC583CABC
:10026900F0A3C8C582C8CAC583CADFE9DEE780BE74
:0104210000DA
:10000E00BB010689828A83E0225002E722BBFE02F0
:09001E00E32289828A83E4932223
:10002700BB010CE58229F582E5833AF583E022508E
:1000370006E92582F8E622BBFE06E92582F8E222D8
:0D004700E58229F582E5833AF583E49322F2
:10005400BC000BBE0029EF8DF084FFADF022E4CC90
:10006400F875F008EF2FFFEE33FEEC33FCEE9DEC59
:10007400984005FCEE9DFE0FD5F0E9E4CEFD22ED9F
:10008400F8F5F0EE8420D21CFEADF075F008EF2FE9
:10009400FFED33FD4007985006D5F0F222C398FDDA
:0500A4000FD5F0EA2277
:1000A900C2D5EC30E709B2D5E4C39DFDE49CFCEE72
:1000B90030E715B2D5E4C39FFFE49EFE120054C396
:1000C900E49DFDE49CFC800312005430D507C3E491
:0600D9009FFFE49EFE22E1
:1000DF00BB010A89828A83E0F5F0A3E022500687EC
:1000EF00F009E71922BBFE07E3F5F009E3192289AE
:0B00FF00828A83E493F5F074019322E1
:10010A00BB010A89828A83F0E5F0A3F0225006F740
:0F011A0009A7F01922BBFE06F3E5F009F319223D
:00000001FF
