:0300000002001EDD
:0C001E00787FE4F6D8FD75811D020065B6
:10028600C0F9A4B0999282F880908883C6A1868E20
:10025B00010800010900040A00000000090EFFFE5E
:07026B00FDFBF7EFDFBF7F91
:10027300E4FDEDC39FE49E5009E4FC0CBC02FC0DBD
:0202830080F009
:010285002256
:06023F00D2B5D2B47F012C
:10024500E4FDEDC39FE49E500CE4FC0CECD39494C8
:0502550040F90D80EDF1
:01025A002281
:10019B007F017E00120245E50A90028693F580C22C
:1001AB00B6D2B712023FE50B93F580D2B6C2B712A7
:1001BB00023FE50C93F580D2B6D2B7C2B51202411D
:0E01CB00E50D93F580D2B6D2B7D2B5C2B422FC
:0401D9008E1A8F1BD0
:1001DD00E4FBFAAE1AAF1B7C007D0A1200AA740A6A
:1001ED002BF8A605AE1AAF1B7C007D0A1200AA8E55
:0E01FD001A8F1B0BBB00010AEB64044A70D57D
:01020B0022D0
:04020C008E1C8F1D98
:10021000E4FBFAAE1CAF1D7C007D101200AA740A2C
:100220002BF8A605AE1CAF1D7C007D101200AA8E17
:0E0230001C8F1D0BBB00010AEB64044A70D545
:01023E00229D
:10013500E4F517F51879FF751901758911758C3C6A
:10014500758AB0D2AFD2A9D2ABD28CD28EC291E58C
:1001550009B41412AF18AE171201D90518E51870B5
:10016500020517E4F509E50864057025E519601031
:1001750009740E29F8E6F590B90813E4F519800E0F
:10018500740E29F8E6F59019B9FF03751901E4F520
:060195000812019B80B975
:03000B0002000EE2
:09000E00758C3C758AB0050832BE
:03001B0002029648
:09029600758C3C758AB005093233
:10002A00020135E493A3F8E493A34003F68001F2B6
:10003A0008DFF48029E493A3F85407240CC8C333D7
:10004A00C4540F4420C8834004F456800146F6DFA6
:10005A00E4800B010204081020408090025BE47ED9
:10006A00019360BCA3FF543F30E509541FFEE4939B
:10007A00A360010ECF54C025E060A840B8E493A362
:10008A00FAE493A3F8E493A3C8C582C8CAC583CA8D
:10009A00F0A3C8C582C8CAC583CADFE9DEE780BE45
:01027200008B
:1000AA00C2D5EC30E709B2D5E4C39DFDE49CFCEE71
:1000BA0030E715B2D5E4C39FFFE49EFE1200E0C309
:1000CA00E49DFDE49CFC80031200E030D507C3E404
:0600DA009FFFE49EFE22E0
:1000E000BC000BBE0029EF8DF084FFADF022E4CC04
:1000F000F875F008EF2FFFEE33FEEC33FCEE9DECCD
:10010000984005FCEE9DFE0FD5F0E9E4CEFD22ED12
:10011000F8F5F0EE8420D21CFEADF075F008EF2F5C
:10012000FFED33FD4007985006D5F0F222C398FD4D
:050130000FD5F0EA22EA
:00000001FF
